:020000003529A0
:10000600710DF80DF90D7408F8027508031C750FCB
:10001600F902F00DF10D0F30FC00710DF80DF90D20
:100026007408701C1C28F8027508031C750FF90269
:100036002128F80775080318750FF907F00DF10D5B
:10004600FC0B102870182D287408F807750803187B
:08005600750FF9070000080016
:0E005E008312031321088A0020088200080084
:10006C00831203132230FC00F801F901FA01FB01A1
:10007C00FC0303196C280310FB0CFA0CF90CF80C9C
:10008C00F30CF20CF10CF00C031C3E28FC030319CE
:10009C005E287408F80775080318750FF9077608B9
:1000AC000318760FFA0777080318770FFB07422817
:1000BC007408F80775080318750FF9077608031804
:0E00CC00760FFA0777080318770FFB07080076
:1000DA00831203132908A2002A08A300A401A50178
:0600EA000130A600080031
:1000F0002F208A110A128000840AA00A0319A10A7B
:08010000F003031D782808003C
:10010800831203137408003A031D93287508003AF4
:10011800031D9328FF30F0007F30F100EC28831294
:100128000313FD01F901F801710870040319003483
:1001380071087506FA00FA1BFD09FB01F51FA928CD
:10014800F409F509F40A0319F50AF11FB028F009B2
:10015800F109F00A0319F10A71087504FA00FA1B8B
:10016800C52803207B18D828FD1F0034F009F109A1
:10017800F00A0319F10AF809F909F80A0319F90A42
:100188000034F51FD428F11BD0287108F900700835
:10019800F800F101F001B828F101F001F00A00348B
:1001A800F109F009FB0AB528F80A0319F90A7408D5
:1001B8007802031DB82875087902031DB828F901CB
:1001C800F801F00A0319F10AF11FB8280000FF34FA
:0201D80008001D
:1001DA00831203132608031DF7280130A9000030F3
:1001EA00AA006D202208F0002308F1002408F2007A
:1001FA002508F3006D30F4004E30F500C630F600E5
:10020A004130F70036203930F5003030F600F7017A
:10021A00F8017008F50771080318710FF6077208DC
:10022A000318720FF70773080318730FF807770894
:10023A00F0007808F1000030F81BFF30F200F300FC
:10024A00FF30F0057F30F1050030F205F305700844
:10025A00A2007108A3007208A4007308A500080090
:10026A0083160313870101308800831287018801EE
:10027A00ED200630F4000030F50084207808F00004
:10028A007908F1007008A7007108A800081C7029F5
:10029A002708F0002808F100F00DF10D70107230F7
:1002AA00F00701300318013EF1077008A000710839
:1002BA00A1002F208A110A1287001F30FB0071301B
:1002CA00FC001E30FD00FD0B6829FC0B6829FB0BA6
:0A02DA006829000087013D29712901
:1002E40008340034223400342A34003455340034C1
:0802F4005D340034773400345E
:02400E004A2F37
:00000001FF
